S016000053656375656E636961734C6564732E7372656383
S11300000C9434000C943E000C943E000C943E007E
S11300100C943E000C943E000C943E000C943E0064
S11300200C943E000C943E000C943E000C943E0054
S11300300C943E000C943E000C943E000C943E0044
S11300400C943E000C943E000C943E000C943E0034
S11300500C943E000C943E000C943E000C943E0024
S11300600C943E000C943E0011241FBECFEFD8E048
S1130070DEBFCDBF0E94E8010C9408020C9400007E
S11300800F931F93CF93DF93199905C01A9B06C052
S1130090C0E0D0E06BC0C0E0D0E068C0C1E0D0E018
S11300A065C08E01112793B1969521E09227492FBF
S11300B0417050E04017510711F01A9B1FC01BB844
S11300C021E030E0082E02C0220F331F0A94E2F729
S11300D02BB92FEF39E698E1215030409040E1F7F9
S11300E000C0000093B1969521E09227E92FE170BA
S11300F0F0E0E017F10721F01A9902C087E034C05C
S11301008F5F01C081E0883060F2F8CF8E01112743
S113011093B1969521E09227692F617070E0601782
S1130120710711F01A9B22C01BB821E030E0082EA1
S113013002C0220F331F0A94E2F72BB92FEF39E6DE
S113014098E1215030409040E1F700C0000093B1A5
S1130150969521E09227A92FA170B0E0A017B107CE
S113016011F01A9B03C081508111D0CF199902C09C
S11301701A9BC8CFDF91CF911F910F91089501C0B1
S11301801BB8199902C01A99FBCF08956F927F92F8
S11301908F929F92AF92BF92CF92DF92EF92FF9293
S11301A00F931F93CF93DF93199905C01A9B06C031
S11301B0C12CD12CF2C0C12CD12CEFC0CC24C394BF
S11301C0D12CEBC08BB182608BB98BB180688BB9B9
S11301D00FEF19E628E1015010402040E1F700C07C
S11301E00000C6019927B3B0B694AA24A394BA24F4
S11301F02B2D217030E08217930711F01A9BD1C088
S1130200BBB04B2D44604BB9BBB05B2D50645BB9A4
S1130210CFEFD9E608E1C150D0400040E1F700C07B
S11302200000B3B0B694AA24A394BA244B2D417011
S113023050E08417950711F01A9BB3C0BBB01B2D77
S113024010621BB9BBB06B2D68606BB97FEFC9E658
S1130250D8E17150C040D040E1F700C00000B3B015
S1130260B694AA24A394BA246B2D617070E0861707
S1130270970711F01A9B95C0BBB0EB2DE061EBB969
S1130280FFEF09E618E1F15000401040E1F700C02B
S11302900000B3B0B694AA24A394BA24EB2DE17061
S11302A0F0E08E179F0711F01A9B7BC0BBB0AB2DFB
S11302B0AF7EABB9BFEFC9E6D8E1B150C040D04082
S11302C0E1F700C00000B3B0B694AA24A394BA2402
S11302D0AB2DA170B0E08A179B0711F01A9B61C087
S11302E0BBB00B2D0F7D0BB9BBB01B2D177F1BB9FA
S11302F0CFEFD9E608E1C150D0400040E1F700C09B
S11303000000B3B0B694AA24A394BA24B0FA882403
S113031080F8912C8815990511F01A9B42C0BBB046
S11303201B2D1B7F1BB9BBB0CB2DCF7BCBB9DFEF14
S113033009E618E1D15000401040E1F700C0000088
S1130340B3B0B694AA24A394BA24B0FA662460F88D
S1130350712C8615970511F01A9B23C0BBB0CB2DC9
S1130360CD7FCBB9BBB0DB2DDF77DBB90FEF19E65F
S1130370C8E101501040C040E1F700C00000B3B034
S1130380B694AA24A394BA24B0FAEE24E0F8F12C8B
S11303908E159F0511F01A9B04C0199B02C01A9B6D
S11303A011CFDF91CF911F910F91FF90EF90DF90CC
S11303B0CF90BF90AF909F908F907F906F90089553
S11303C002C08EEF8BB9199B02C01A99FACF089517
S11303D08EEF8AB914B81BB8199905C01A9903C0CD
S11303E00E944000F8CF199905C01A9B03C00E94CF
S11303F0BF00F1CF199B05C01A9903C00E94C60023
S1130400EACF199BE8CF1A9BE6CF0E94E001E3CF25
S1070410F894FFCF8A
S9030000FC
