S0190000446973706C6179375365676D656E746F732E7372656349
S11300000C9434000C943E000C943E000C943E007E
S11300100C943E000C943E000C943E000C943E0064
S11300200C943E000C943E000C943E000C943E0054
S11300300C943E000C943E000C943E000C943E0044
S11300400C943E000C943E000C943E000C943E0034
S11300500C943E000C943E000C943E000C943E0024
S11300600C943E000C943E0011241FBECFEFD8E048
S1130070DEBFCDBF0E94E9000C9425010C94000062
S11300808BB1826F8BB92FEF85EA9EE021508040BF
S11300909040E1F700C0000008958BB18C608BB9EB
S11300A02FEF85EA9EE0215080409040E1F700C0A8
S11300B0000008958BB1866B8BB92FEF85EA9EE023
S11300C0215080409040E1F700C0000008958BB1BA
S11300D0866E8BB92FEF85EA9EE0215080409040D8
S11300E0E1F700C0000008958BB1826E8BB92FEF49
S11300F085EA9EE0215080409040E1F700C0000076
S1130100089585B18C6085B92FEF83ED90E321507C
S113011080409040E1F700C0000085B1837F85B93D
S113012085B1826185B92FEF83ED90E32150804042
S11301309040E1F700C0000085B18D7E85B9089537
S113014081E013C021E030E0082E02C0220F331FEB
S11301500A94E2F725B92FEF33ED90E321503040B4
S11301609040E1F700C000008F5F85305CF3089594
S113017084E013C021E030E0082E02C0220F331FB8
S11301800A94E2F725B92FEF33ED90E32150304084
S11301909040E1F700C00000815018165CF3089508
S11301A02FEF83ED90E3215080409040E1F700C0B1
S11301B000008EE185B92FEF83ED90E3215080405C
S11301C09040E1F700C0000015B808958EE185B9AC
S11301D008958EEF8AB98EE184B917B815B81BB8A3
S11301E08EE088B9319909C0329907C0339905C0A6
S11301F00E9440000E948100F2CF319909C03299D7
S113020007C0339B05C00E944D000E94A000E7CFA9
S1130210319909C0329B07C0339905C00E945A0026
S11302200E94B800DCCF319909C0329B07C0339BD0
S113023005C00E9467000E94D000D1CF319BCFCF70
S11102400E9474000E94E600CACFF894FFCF1B
S9030000FC
